:0400000085EF00F098
:1000080000020002000200020002000200020002D8
:1000180000020002000200020002000200020002C8
:1000280000020002000200020002000200020002B8
:100038000002000200020002000200020002FC01AD
:100048000002000200020002000200020002000298
:100058000002000200020002000200020002000288
:100068000002000200020002000200020002000278
:100078000002000200020002420000020002000228
:100088000002000200020002000200020002000258
:10009800657E000200020002420000020002000227
:1000A8000002000200020002000200020002000238
:1000B8000002000200020002000200020002000228
:1000C8000002000200020002000200020002000218
:1000D8000002000200020002000200020002000208
:1000E80042000002000200020002000200020002B8
:1000F80000020002000200020002000200020002E8
:10010800FF0009EFF7F01A0E0A24046E000E0B2008
:10011800056E0CC506F50DC507F519EC03F008C505
:10012800D9F409C5DAF4030EDE18D8A49EEF00F05E
:10013800A0EF00F0ACEF00F0140E0A24046E000EDD
:100148000B20056E0EC506F50FC507F519EC03F073
:1001580012000701AD51AE11D8B4B5EF00F0B7EFFA
:1001680000F0ADEF00F0A790000EA325D96E0A0E9F
:10017800A421DA6EDF50086E010EA325066E000E6C
:10018800A421076E7F0E0614A36FA46BAD07D8A039
:10019800AE07A78008C504F5056A12007D0E0501A3
:1001A800AD6FF10EAE6F2DEC03F06B0E0501AD6F68
:1001B800F90EAE6F2DEC03F0520E0501BE6F2B0E3B
:1001C800BD6F000EE82EFED7BD2FFCD7BE2FFAD785
:1001D80000007D0E0501AD6FF10EAE6F2DEC03F042
:1001E80012000001D56BEEEC03F00001D783010E7D
:1001F800D56FD783D4AF03EF01F005EF01F0FEEF21
:1002080000F0D793070ED56FD785D7950801B3515E
:10021800D8B411EF01F013EF01F017EF01F0D69EFB
:100228000701B36BD68E1200176E88C718F589C7F9
:1002380019F518C512F519C513F552EC03F01A6E25
:1002480017501A18D8A42BEF01F02DEF01F039EF51
:1002580001F01506D8A0160615501610D8A437EFC9
:1002680001F039EF01F01DEF01F01A501200000EF5
:100278002F1A000E301A000E311A800E321A2BC5B2
:1002880004F52CC505F52DC506F52EC507F52FC5B2
:1002980008F530C509F531C50AF532C50BF570EC1E
:1002A800A5F004C52BF505C52CF506C52DF507C524
:1002B8002EF51200000E146E000E136E6FEF01F093
:1002C80012C505F5066A10C507F511C508F568ECED
:1002D800F3F0134A142A13500E24D96E14500F2029
:1002E800DA6EDF50126E1250D8A47DEF01F07FEF66
:1002F80001F064EF01F012000501BD6F0501BD5169
:10030800D8B489EF01F08BEF01F08EEF01F0020E07
:10031800A0EF01F00701EA290AE1EB2908E1EC293D
:1003280006E1ED29D8A49BEF01F09DEF01F09FEFC6
:1003380001F08BEF01F0000E120004C506F505C5AB
:1003480007F520EE02F00650D9260750DA22DF061C
:10035800DF50D8A4B2EF01F0B4EF01F0BFEF01F025
:1003680002010A6B096B20EE03F00650D9260750EC
:10037800DA22DF50C76E1200000E0201D56F220E7E
:10038800D46FD189D18BC68E070E766FBE8CC69C72
:10039800260E076FD28F000E0701A66F000EA56FFD
:1003A800000EA46F000EA36F000EAE6F000EAD6FAF
:1003B800A78012000701B66B0801B351D8A4E7EF74
:1003C80001F0E9EF01F0EFEF01F0FEEC03F08EEC45
:1003D800FCF0F3EF01F0FCEC03F0AEECF7F00701F2
:1003E800B8050601FF6F0701B86B0601FF5112003F
:1003F80004C508F505C509F506C5F6F407C5F7F4FB
:10040800064A072A000EF86E08C5D9F409C5DAF4B9
:10041800084A092A0800F5C4DFF4DF50D8A417EF0A
:1004280002F019EF02F000EF02F01200EEEC03F018
:100438000001D56BD793C290090E056E1E0E046E8F
:10044800E40EE82EFED7042EFCD7052EFAD700D0EE
:100458000001D783070ED56FD785D795C2800701CE
:10046800B36B120020EE01F00450D9260550DA22B1
:10047800DF50066E0650096E0A6A04C5D9F405C530
:10048800DAF4DF50066E0950076E0650096E07C58C
:100498000AF509C504F50AC505F5120004C50AF5EB
:1004A80005C50BF560EF02F00AC5D9F40BC5DAF4FF
:1004B80006C5DFF40A4A0B2A0806D8A00906082848
:1004C80006E10928D8A46BEF02F06DEF02F058EFAF
:1004D80002F01200C9C5BEF5CAC5BFF5CB0E0501AD
:1004E800C06F050EC16FCFECEBF00501CD6FCD519C
:1004F800D8A481EF02F083EF02F089EF02F0C9C5BA
:10050800D9F4CAC5DAF4DE6ADD6A120004500510AF
:1005180006100710D8B493EF02F095EF02F09DEFA4
:1005280002F0000E041A000E051A000E061A800EBC
:10053800071A04C504F505C505F506C506F507C57A
:1005480007F512000FBEABEF02F0ADEF02F0B3EF0C
:1005580002F00EC50EF50FC50FF5BFEF02F00EC580
:1005680010F50FC511F5101E111E104A112A10C5DD
:100578000EF511C50FF51200EEEC03F0550E04014F
:10058800596FAA0E596F5991080E5D6F000E5E6F74
:10059800000E5F6F550E596FAA0E596F59810001F1
:1005A800D56BD783C280120004C506F505C507F5CB
:1005B80020EE02F00650D9260750DA22DF6A000141
:1005C800846B856B090E02016A6F0A0E6B6FCA9401
:1005D8000001848F12004BFFCC0753FFD007CEF1E8
:1005E80001D4A80108FA0150C401FFFFFFFFC807A2
:1005F800CAFE10FFD5FEBFFEB4FEA9FE48F443FFB5
:1006080088C715F589C716F515C508F516C509F57E
:1006180074EC03F015C50EF516C50FF5000E116E36
:10062800010E106E0AECFEF0120004C5D9F405C5DF
:10063800DAF406C5DFF4044A052A0750066E076A8D
:1006480004C5D9F405C5DAF406C5DFF4044A052A59
:100658001200AF0E0501BB6F050EBC6F000EA56F33
:10066800000EA66FADC5A7F5AEC5A8F5BB0EA96F60
:10067800050EAA6F94ECFEF01200010E0001D56F72
:10068800D783D4AF4AEF03F04CEF03F045EF03F004
:10069800D793070ED56FD785D7951200146812C562
:1006A80004F513C505F5140E066E050E076E000E4B
:1006B800096E010E086EDBECBFF01450120008C57D
:1006C80004F509C505F5EAECFEF008C504F509C509
:1006D80005F5000E076E010E066EB9EC03F0120068
:1006E80008C504F509C505F5000E076E000E066E6F
:1006F800B9EC03F008C504F509C505F5A1EC01F04E
:100708001200000E0401436F000E446F010E456F86
:10071800476B4691468B468F3F0E0201046F1200CD
:10072800840E03011A6FA10E1B6F0001B38B030126
:100738001969186BB19EA18E12000401469F469B51
:10074800CCC743F4CDC744F4CEC745F4468B468F97
:1007580012005B0E0501AD6FFC0EAE6F78C7AFF5EA
:1007680079C7B0F52DEC03F0120006500710D8B485
:10077800C0EF03F0C3EF03F0C284C4EF03F0C294E8
:100788001200046EB7A2CBEF03F0CDEF03F0C6EF73
:1007980003F004C5C9F21200000E046E000E056EC7
:1007A800210E066E000E076E1200F5EC00F0DEEC6E
:1007B80001F00701186F1851120078C7AFF679C712
:1007C800B0F6CAECEDF01200C86AC96ABE88C698CD
:1007D800C6921200C868C968C682C6881200010E8F
:0607E8000701BC6F1200C6
:1007F0000701B32BB19E1100A18E1200A19E120021
:020800001100E5
:10F0F20000819FE0FC407E80FC00000000000038A0
:10F10200FB9CF6FFFFFFFFFFFFF5FFF0FFF5FF415E
:10F112003D242530325820583D242530325820597C
:10F122003D24253032582053503D24303125303291
:10F13200582050433D2425303458205053523D240A
:10F14200253032580D0A00534420436172643A203C
:10F15200726561643531323A2043524320657272DE
:10F162006F7220282530347820213D2025303478D4
:10F172002C2072657472793D2564290A0D00413D87
:10F18200242530345820583D242530345820593D08
:10F1920024253034582053503D24253034582050F3
:10F1A200433D2425303458205053523D24253032DB
:10F1B200580D0A00496D6167652066696C652025F6
:10F1C200732F444F53363525632E44534B206973B6
:10F1D2002061737369676E656420746F206472695D
:10F1E20076652025630A0D00534420436172643A18
:10F1F2002020726561643531323A20616464723D67
:10F2020025386C642C206F6666733D25642C206360
:10F212006F756E743D25640A0D005344204361727C
:10F22200643A2077726974653531323A20616464D8
:10F23200723D25386C642C206F6666733D25642C04
:10F2420020636F756E743D25640A0D00534420439C
:10F252006172643A2077726974653531323A206698
:10F2620061696C656420746F2067657420746F6BCC
:10F27200656E2C2074696D656F75740A0D00646982
:10F28200736B5F696F63746C3A20706472763D25AC
:10F29200642C20636D643D25642C20627566663D96
:10F2A2003078256C783A207265733D25640A0D002A
:10F2B2000D0A3C3C204D455A573635435F52414D6D
:10F2C200204669726D77617265204275696C742D92
:10F2D200696E20636F6D6D616E64203E3E0D0A00A3
:10F2E200534420436172643A207772697465353100
:10F2F200323A2074696D656F75742C207265737073
:10F302006F6E736520697320253032780A0D0053C1
:10F312004420436172643A20434D4435382C2052D4
:10F32200333D25303278202530327820253032782E
:10F33200202530327820253032780A0D0025733AA4
:10F34200204552524F523A20636C6F636B207370A8
:10F35200656564202564206973206E6F742073755F
:10F3620070706F727465640A0D00534420436172B9
:10F37200643A20434D44382C2052373D25303278B0
:10F3820020253032782025303278202530327820FE
:10F39200253032780A0D006469736B5F696F63749C
:10F3A2006C3A20706472763D25642C20636D643D56
:10F3B20025643A204E6F742068616E646C65642E19
:10F3C2000A0D006469736B5F726561643A20207094
:10F3D2006472763D25642C20736563746F723D25DB
:10F3E2006C642C20636F756E743D25640A0D006495
:10F3F20069736B5F77726974653A20706472763DE7
:10F4020025642C20736563746F723D256C642C2017
:10F41200636F756E743D25640A0D00534420436189
:10F4220072643A204343532028436172642043614B
:10F4320070616369747920537461747573292069EA
:10F442007320300A0D004D657A7A616E696E65200F
:10F4520043617264204D455A573635435F52414DE0
:10F46200206669726D7761726520526576322E313F
:10F4720000534420436172643A207772697465359F
:10F4820031323A20435243206572726F72202872E1
:10F49200657472793D2564290A0D00534420436145
:10F4A20072643A204361726420706F7765722075CE
:10F4B200702073746174757320626973206973209C
:10F4C200300A0D002020444F5336352020284B654A
:10F4D200792043544C2B54203A207465726D696E26
:10F4E20061746520444F533635290D0A0020204CA3
:10F4F2004F4144205B4C3D6C6F61642061646472D7
:10F5020065737328486578295D2066696C65206E8D
:10F51200616D650D0A0020204C53207C2044495225
:10F52200205B66696C65206E616D65207C20646974
:10F53200726563746F7279206E616D650D0A0049A0
:10F542006E76616C69642820636F6D6D616E6420F4
:10F552007C2066696C65207C206469726563746FC7
:10F56200727920290D0A000D0A436C6F73652064BD
:10F5720069736B20496D6167652066696C65202F30
:10F5820025732F444F53363525632E44534B004C7D
:10F592006F6164202573203A20416472203D20244B
:10F5A2002530366C582C2053697A65203D2024255D
:10F5B2003034580D0A0072656164204D4252207049
:10F5C2006172746974696F6E207461626C65206126
:10F5D2007420736563746F7220300A0D00534420E7
:10F5E200436172643A2053444843206F722053446B
:10F5F2005843206361726420646574656374656452
:10F602000A0D0025733A204552524F523A206D6F2F
:10F612006465202564206973206E6F742073757091
:10F62200706F727465640A0D00445052203A2024AF
:10F632002530345820504252203A20242530325866
:10F6420020444252203A2024253032580D0A0053D9
:10F652004420436172643A20696E697469616C691D
:10F662007A65202E2E2E207375636365656465644A
:10F672000A0D00534420436172643A20756E657826
:10F6820070656374656420726573706F6E73652054
:10F69200253032780A0D00496E7374616C6C204D0E
:10F6A2006F6E69746F722050726F6772616D2E2E69
:10F6B2002E2E2E2E2E2E2E2E0D0A00534420436166
:10F6C20072643A2041434D44343120726573706F45
:10F6D2006E736520697320253032780A0D00534419
:10F6E20020436172643A2077726974653531323A27
:10F6F20020746F6B656E20697320253032780A0D95
:10F70200004D656D6F7279202430303030303020FA
:10F712002D20242530366C58202564204B42204F62
:10F722004B0D0A00534420436172643A20434D4416
:10F73200353920726573706F6E7365206973202589
:10F742003032780A0D0052656C6F61642025732097
:10F75200666F7220456D756C6174696F6E204D6FB6
:10F7620064652E2E2E0D0A00445052203A20242584
:10F7720030345820504252203A2024303020444223
:10F7820052203A202430300D0A0050494320492F9C
:10F792004620536861726564206D656D6F727920D1
:10F7A2003A20242530366C580D0A00706172746953
:10F7B20074696F6E20737461727473206174207344
:10F7C2006563746F7220256C640A0D00444F535FA9
:10F7D2004449534B206469726563746F7279206E79
:10F7E2006F7420666F756E642E0D0A005042523D92
:10F7F2002425303258204442523D242530325820AC
:10F802004450523D24253034580D0A00665F777209
:10F8120069746528293A204552524F522072657305
:10F822003D25642C206E3D25640A0D0052656C6FE7
:10F83200616420257320666F72204E61746976655B
:10F84200204D6F64652E2E2E0D0A004E6F74204DD2
:10F85200455A573635435F52414D20666F726D618E
:10F86200742066696C652E0D0A00665F72656164BC
:10F8720028293A204552524F52207265733D256421
:10F882002C206E3D25640A0D000D0A2573203A20B6
:10F8920053697A65203D20242530345820627974DA
:10F8A20065732E0D0A0046496C65206C6F616420F9
:10F8B20061646472657373203A20242530366C5873
:10F8C2000D0A006661696C656420746F2077726945
:10F8D200746520736563746F7220256C640A0D0071
:10F8E2000A0D534420436172643A20696E69746957
:10F8F200616C697A65202E2E2E0A0D006661696C94
:10F90200656420746F207265616420736563746F2F
:10F912007220256C640A0D00534420436172643ADC
:10F922002041434D4434312C2052313D2530327830
:10F932000A0D004E6F2050726F6772616D20746FF6
:10F94200207465726D696E6174652E0D0A004661E0
:10F95200696C656420746F206D6F756E74205344FA
:10F9620020436172642E0A0D007761697420666F0C
:10F97200722070726F6772616D6D6572202E2E2E0D
:10F982000D0A000D0A417373657274204E4D4920B1
:10F99200696E746572727570742E0D0A0057363571
:10F9A2004330322028456D756C6174696F6E204D4D
:10F9B2006F6465290A0D004661696C656420746F85
:10F9C200206F70656E20534420436172642E0A0DCD
:10F9D20000426F74682057363543303220616E64BE
:10F9E20020573635433831360A0D000A4D656D6FA2
:10F9F2007279206572726F7220617420242530360C
:10FA02006C580A0D006661696C656420746F20721F
:10FA120065616420736563746F7220300A0D005350
:10FA22004420436172643A206E6F74207375706F64
:10FA320070727465640A0D00534420436172643A23
:10FA420020434D44302C2052313D253032780A0D6E
:10FA520000576F726B206F6E206F6E6C7920573675
:10FA620035433831362E2E0D0A004D656D6F727991
:10FA72002024303030303030202D20242530366C98
:10FA8200580D006469736B5F696E697469616C69B2
:10FA92007A65282564292E2E2E0A0D00496E76617C
:10FAA2006C6964204D455A573635432066696C654A
:10FAB2002E0D0A0020204344205B64697265637442
:10FAC2006F7279206E616D655D0A0D0025732535B3
:10FAD200337320434845434B53554D3A202530322A
:10FAE200780A0D000D0A557365204E434F312025CB
:10FAF200322E33664D487A0D0A0A002573203A20C9
:10FB0200696E76616C69642076616C756521210D80
:10FB12000A0020204D44554D502061646472657383
:10FB22007328486578290D0A00435055205365749F
:10FB320074696E673A20573635433831360D0A00FC
:10FB42000A4D656D6F727920777261702061726FF4
:10FB5200756E642E0A0D00706879736963616C209A
:10FB620064726976657220213D20300A0D00466C70
:10FB7200696528257329206C6F6164696E672E2E72
:10FB82002E0D0A004350552053657474696E673A0E
:10FB9200205736354330320D0A0046696C65204FD6
:10FBA20070656E204572726F722E2025730D0A00E9
:10FBB20057363543383136204E6174697665206D8B
:10FBC2006F64650A0D00665F6C7365656B28293A80
:10FBD200204552524F522025640A0D004D656D6F2B
:10FBE2007279205772697465204572726F720D0ABC
:10FBF200000D0A46696C65204F70656E2045727271
:10FC02006F722E0D0A0044726976652041206E6F74
:10FC12007420666F756E642E0A0D00665F73796ECE
:10FC22006328293A204552524F522025640A0D007A
:10FC32006E6F204641543332207061727469746968
:10FC42006F6E0A0D0020202531327309256C642065
:10FC520062797465732E0D0A0052656C6F616420BF
:10FC62006D6F6E69746F722025730D0A004F706597
:10FC7200726174696F6E616C204D6F6465203A2009
:10FC820000534420436172643A2074696D656F7554
:10FC9200740A0D0046696C652072656164206572A4
:10FCA200726F72210D0A0046696C65204C6F6164A7
:10FCB200204572726F722E0D0A0046696C652072C1
:10FCC200656164206572726F722E0D0A00202053E6
:10FCD200484F572066696C65206E616D650D0A009C
:10FCE2004D4E49203A204E6F20737570706F7274BA
:10FCF2000D0A00495251203A204E6F2073757070E0
:10FD02006F72742C20006E6F204D4252207369670F
:10FD12006E61747572650A0D00534420436172640A
:10FD22003A2072656164792E0A0D006E6F20766149
:10FD32006C696420766F6C756D650A0D00535049CD
:10FD42005F53445F636F6E66696775726500257302
:10FD5200206E6F7420666F756E642E2E0D0A00433E
:10FD62005354415254203A2024253034580D0A006D
:10FD7200575354415254203A2024253034580D0A06
:10FD8200002573206E6F7420666F756E642E0D0AE7
:10FD92000020204D4F4E49544F52205B575D0D0AB3
:10FDA200004D4E49203A20537570706F72740D0ADF
:10FDB20000557365722050726F6772616D2E0A0D65
:10FDC20000495251203A20537570706F72742C2082
:10FDD200005245534554204350552E2E2E0D0A00F5
:10FDE200202025313273093C4449523E0D0A005409
:10FDF20065726D696E6174652025730D0A002A2B88
:10FE02002C3A3B3C3D3E5B5D7C223F7F004E6F20A7
:10FE1200534420436172643F0A0D002573203A2047
:10FE2200242530366C780D0A005374616E642D619E
:10FE32006C6F6E650A0D000D0A426F6172643A20A2
:10FE420025730A0D0053797374656D2073746F7096
:10FE5200212100202048454C50207C203F0D0A00E3
:10FE620046696C652054797065203A20003C202553
:10FE7200732F2573203E0D0A000D0A4C6F6164201A
:10FE820025730D0A004465746563742025730A0D99
:10FE92000020204353544152540D0A00202057534E
:10FEA200544152540D0A004D455A5730322E4346A2
:10FEB20047004D455A5731362E434647002F4D4F86
:10FEC2004E30322E535953002F444F5336352E5352
:10FED2005953002F4D4F4E31362E535953003C206B
:10FEE2002F2573203E0D0A002020464C4153480D19
:10FEF2000A004D4F4E49544F520A0D003C202573C3
:10FF0200203E0D0A002020524554490D0A00444F5C
:10FF1200535F4449534B0025732530366C783A00C1
:10FF220046415433322020200020205245470D0AFA
:10FF32000020253132732020005B253132735D2091
:10FF4200004D455A5736354300434C4B5F494E43AB
:10FF5200005245515F484452004D4F4E49544F5252
:10FF6200002573253034783A00286E756C6C2900B0
:10FF72004353544152540057535441525400444F36
:10FF820053363500464C415348004D44554D5000C0
:10FF92006275663A20002025303278006661743A34
:10FFA200200053443A200025732F20004D656D2018
:10FFB20000303A2F2F004C4F414400524554490023
:10FFC20048454C500053484F570052443A2000577E
:10FFD200523A2000696E66006E616E00524547001B
:10FFE20044495200494E46004E614E004C3D00438A
:0EFFF20044004C53002573004F56003F0000A2
:020000040001F9
:1000000083C6D9F484C6DAF4DE6ADD6A81C604F5F3
:1000100082C605F55AECDAF004C592F605C593F6EA
:10002000060193BF18EF80F016EF80F01BEF80F011
:100030000B0E6BEF85F0D8909235D96E9335DA6E52
:10004000B10ED926070EDA22DEC4ADF6DDC4AEF657
:10005000AD51AE11D8A42FEF80F031EF80F034EF26
:1000600080F00C0E6BEF85F083C6D9F484C6DAF409
:10007000ADC6DEF4AEC6DDF48591ADC6D9F4AEC62C
:10008000DAF4DF50D8B447EF80F049EF80F070EF3A
:1000900080F020EE01F0AD51D926AE51DA22DF50CA
:1000A00080EC01F00601A26FA2B159EF80F05BEF86
:1000B00080F070EF80F08551D8B461EF80F063EF8D
:1000C00080F06DEF80F0A2A568EF80F06AEF80F01D
:1000D0006DEF80F00A0E6BEF85F0000E6BEF85F090
:1000E000ADC6D9F4AEC6DAF4DF6A20EE01F0AD5148
:1000F000D926AE51DA22DF502CECDBF00601A26FDC
:10010000A2A185EF80F087EF80F08AEF80F0030EE8
:100110006BEF85F08551D8B490EF80F092EF80F0CE
:100120009BEF80F0A2A597EF80F099EF80F09BEF16
:1001300080F06AEF80F0ADC632F6AEC633F6000E40
:10014000356F000E346F81ECD2F032C6ABF633C699
:10015000ACF6040E0601AB19AC11D8A4B2EF80F0D6
:10016000B4EF80F0B7EF80F0010E6BEF85F0AC518B
:1001700009E1020EAB5DD8A0C0EF80F0C2EF80F0C5
:10018000C5EF80F00D0E6BEF85F020EE30F0AD5135
:10019000D926AE51DA22DEC49EF6DEC49FF6DEC456
:1001A000A0F6DEC4A1F63F0EAD25046E000EAE2112
:1001B000056E36EC02F0020E05180410D8B4E3EF19
:1001C00080F0E5EF80F0E7EF80F0C2EF80F04A0EBC
:1001D0000601AD25046E000EAE21056E36EC02F070
:1001E00004C5A7F605C5A8F60601A96BAA6BA75119
:1001F000A811A911AA11D8A400EF81F002EF81F093
:1002000012EF81F0580EAD25046E000EAE21056E82
:100210004FECF5F004C5A7F605C5A8F606C5A9F686
:1002200007C5AAF6060120EE1CF0AD51D926AE5145
:10023000DA22A7C6DEF4A8C6DEF4A9C6DEF4AAC692
:10024000DEF420EE44F0AD51D926AE51DA2210EEA4
:1002500003F0AD51E126AE51E222DFC4E7F420EE17
:1002600003F0AD51D926AE51DA22DE04D8B43BEF0B
:1002700081F03DEF81F04EEF81F020EE03F0AD51C3
:10028000D926AE51DA22020EDE18D8B44AEF81F038
:100290004CEF81F04EEF81F0C2EF80F0A7C604F57D
:1002A000A8C605F5A9C606F5AAC607F520EE03F00F
:1002B000AD51D926AE51DA22DF50866F8651086ED5
:1002C000096A0A6A0B6A71ECFDF004C5A7F605C558
:1002D000A8F606C5A9F607C5AAF6060120EE41F064
:1002E000AD51D926AE51DA22DF50866F876B20EEF2
:1002F0000AF0AD51D926AE51DA2286C6DEF487C6A1
:10030000DDF420EE0AF0AD51D926AE51DA22DE50EE
:10031000DE10D8B48EEF81F090EF81F0C2EF80F064
:1003200020EE0AF0AD51D926AE51DA22DEC486F6AF
:10033000DDC487F620EE0AF0AD51D926AE51DA229F
:10034000DEC488F6DDC489F6FF0E88258A6FFF0EAD
:1003500089218B6F86518A158C6F87518B158D6F14
:100360008C518D11D8B4B7EF81F0B9EF81F0BBEFAC
:1003700081F0C2EF80F0450EAD25046E000EAE2177
:10038000056E36EC02F0060120EE08F0AD51D926DC
:10039000AE51DA2204C5DEF405C5DDF420EE08F026
:1003A000AD51D926AE51DA22DEC486F6DDC487F619
:1003B0000F0E8617000E871786518711D8B4E3EF0A
:1003C00081F0E5EF81F0E7EF81F0C2EF80F0470EBA
:1003D000AD25046E000EAE21056E36EC02F004C5AC
:1003E0009AF605C59BF606019C6B9D6B9A519B1175
:1003F0009C119D11D8A4FFEF81F001EF82F011EF65
:1004000082F0540EAD25046E000EAE21056E4FEC49
:10041000F5F004C59AF605C59BF606C59CF607C51A
:100420009DF6420E0601AD25046E000EAE21056E4E
:1004300036EC02F004C598F605C599F60601985108
:100440009911D8A426EF82F028EF82F02AEF82F0EB
:10045000C2EF80F020EE08F0AD51D926AE51DA227D
:10046000DEC486F6DDC487F6040E886FD890873325
:100470008633882F36EF82F098518625896F9951FF
:1004800087218A6F8B6BD8B08B2B8C6BA7518925FA
:10049000946FA8518A21956FA9518B21966FAA510B
:1004A0008C21976F94519A5D95519B5996519C5907
:1004B00097519D59D8B05FEF82F061EF82F063EF02
:1004C00082F0C2EF80F094519A5D046E95519B5971
:1004D000056E96519C59066E97519D59076E20EEF8
:1004E0000AF0AD51D926AE51DA22DEC486F6DDC45B
:1004F00087F686C608F587C609F50A6A0B6A5CECBA
:10050000F7F004C5A3F605C5A4F606C5A5F607C50C
:10051000A6F60601A351A411A511A611D8A493EF24
:1005200082F095EF82F097EF82F0C2EF80F0000E3C
:10053000AC6F000EAB6FF60EA35DFF0EA459FF0E5D
:10054000A5590F0EA659D8B0A8EF82F0AAEF82F0F5
:10055000AEEF82F0000EAC6F030EAB6FA651A5118B
:1005600009E1F60EA35DFF0EA459D8B0BAEF82F0F0
:10057000BCEF82F0C0EF82F0000EAC6F020EAB6FEA
:10058000A651A51109E1F60EA35D0F0EA459D8B02E
:10059000CCEF82F0CEEF82F0D2EF82F0000EAC6FA3
:1005A000010EAB6FAB51AC11D8A4D9EF82F0DBEFE9
:1005B00082F0DDEF82F0C2EF80F0020EA325866F9D
:1005C000000EA421876F000EA521886F000EA621C2
:1005D000896F20EE18F0AD51D926AE51DA2286C6C9
:1005E000DEF487C6DEF488C6DEF489C6DEF420EECB
:1005F00020F0AD51D926AE51DA229EC6DEF49FC658
:10060000DEF4A0C6DEF4A1C6DEF498519E25866F06
:1006100099519F21876F000EA021886F000EA121A4
:10062000896F20EE24F0AD51D926AE51DA2286C66C
:10063000DEF487C6DEF488C6DEF489C6DEF49451A3
:100640009E25866F95519F21876F9651A021886FB7
:100650009751A121896F20EE2CF0AD51D926AE51D2
:10066000DA2286C6DEF487C6DEF488C6DEF489C6E2
:10067000DEF4030EAB19AC11D8A441EF83F043EFC5
:1006800083F0A0EF83F05E0EAD25046E000EAE2168
:10069000056E36EC02F004500510D8B452EF83F02A
:1006A00054EF83F056EF83F0C2EF80F0060120EEA6
:1006B00008F0AD51D926AE51DA22DE50DE10D8B4A2
:1006C00064EF83F066EF83F068EF83F0C2EF80F0B1
:1006D000600EAD25046E000EAE21056E4FECF5F0F8
:1006E000060120EE28F0AD51D926AE51DA2204C51C
:1006F000DEF405C5DEF406C5DEF407C5DEF420EE43
:1007000018F0AD51D926AE51DA22DEC486F6DEC429
:1007100087F6DEC488F6DEC489F6020ED8908637E6
:10072000873788378937E82E8EEF83F086C68EF6B6
:1007300087C68FF688C690F689C691F640EF84F09A
:1007400020EE08F0AD51D926AE51DA22DE50DE108F
:10075000D8A4ADEF83F0AFEF83F0B1EF83F0C2EF39
:1007600080F020EE24F0AD51D926AE51DA22DEC45D
:1007700086F6DEC487F6DEC488F6DEC489F6A751A5
:1007800086258A6FA85187218B6FA95188218C6F8C
:10079000AA5189218D6F20EE28F0AD51D926AE5196
:1007A000DA228AC6DEF48BC6DEF48CC6DEF48DC691
:1007B000DEF4020EAB19AC11D8B4E1EF83F0E3EF35
:1007C00083F029EF84F020EE18F0AD51D926AE5118
:1007D000DA22DEC486F6DEC487F6DEC488F6DEC41E
:1007E00089F6010E86158A6F000E87158B6F000E35
:1007F00088158C6F000E89158D6F20EE18F0AD51A5
:10080000D926AE51DA22DEC404F5DEC405F5DEC415
:1008100006F5DEC407F5030E086E000E096E000E25
:100820000A6E000E0B6E71ECFDF0D89007320632A6
:100830000532043206018A5104248E6F8B51052043
:100840008F6F8C510620906F8D510720916F40EF74
:1008500084F020EE18F0AD51D926AE51DA22DEC474
:1008600086F6DEC487F6DEC488F6DEC489F6D89044
:1008700086358E6F87358F6F8835906F8935916F8C
:10088000FF0E8E25866F010E8F21876F000E90213F
:10089000886F000E9121896F0A0E54EF84F0D89072
:1008A0008933883387338633E82E4FEF84F020EE88
:1008B0001CF0AD51D926AE51DA228651DE5C87514B
:1008C000DE588851DE588951DE58D8B06AEF84F07E
:1008D0006CEF84F06EEF84F0C2EF80F020EE10F049
:1008E000AD51D926AE51DA22FF0EDE6EFF0EDE6E5E
:1008F000FF0EDE6EFF0EDD6EDD52DD5210EE0CF0EF
:10090000AD51E126AE51E222DEC4E6F4DEC4E6F4E7
:10091000DEC4E6F4DEC4E6F420EE05F0AD51D926DF
:10092000AE51DA22800EDF6E030EAB19AC11D8A4E3
:100930009CEF84F09EEF84F04BEF85F0640EAD25C4
:10094000046E000EAE21056E36EC02F004040510B4
:10095000D8A4ADEF84F0AFEF84F04BEF85F0ADC6D7
:100960001AF6AEC61BF6010E06019E251C6F000E80
:100970009F211D6F000EA0211E6F000EA1211F6F71
:1009800067ECF1F00009D8A4C8EF84F0CAEF84F056
:100990004BEF85F0060120EE05F0AD51D926AE51A2
:1009A000DA22DF6A320EAD25046E020EAE21056E2C
:1009B00036EC02F0550E041807E1AA0E0518D8A46B
:1009C000E4EF84F0E6EF84F04BEF85F0340E06019F
:1009D000AD25046E000EAE21056E4FECF5F0520E03
:1009E00004180DE1520E05180AE1610E061807E120
:1009F000410E0718D8A4FFEF84F001EF85F04BEF0C
:100A000085F0180E0601AD25046E020EAE21056EAE
:100A10004FECF5F0720E04180DE1720E05180AE1A4
:100A2000410E061807E1610E0718D8A41AEF85F0E9
:100A30001CEF85F04BEF85F01C0E0601AD25046E12
:100A4000020EAE21056E4FECF5F0060120EE10F01F
:100A5000AD51D926AE51DA2204C5DEF405C5DEF467
:100A600006C5DEF407C5DEF4200EAD25046E020EC9
:100A7000AE21056E4FECF5F0060120EE0CF0AD5105
:100A8000D926AE51DA2204C5DEF405C5DEF406C56A
:100A9000DEF407C5DEF4ADC6D9F4AEC6DAF4ABC6F3
:100AA000DFF40701AF4BB02B060120EE06F0AD518D
:100AB000D926AE51DA22AFC7DEF4B0C7DDF420EE9E
:100AC00014F0AD51D926AE51DA22DE6ADE6ADE6A52
:100AD000DD6A6DEF80F012000501886B62C589F553
:100AE00063C58AF564C58BF565C58CF58CBF7DEF54
:100AF00085F07BEF85F091EF85F0010E886F89C559
:100B000004F58AC505F58BC506F58CC507F58AEC95
:100B100002F004C589F505C58AF506C58BF507C53C
:100B20008CF5000E05018E6F000E8D6F9DC77CF554
:100B30009EC77DF58851D8B4A0EF85F0A2EF85F06F
:100B4000B6EF85F08851D8A4A8EF85F0AAEF85F01C
:100B5000B0EF85F0000E6E6F2B0E6D6FB4EF85F069
:100B6000000E6E6F2D0E6D6F6DC588F589C504F58D
:100B70008AC505F58BC506F58CC507F5CEECECF0FE
:100B800004040510D8A4C7EF85F0C9EF85F0FCEF89
:100B900085F005018851D8B4D0EF85F0D2EF85F00B
:100BA000DBEF85F088C520F87C07D8A07D07000E14
:100BB0008E6F010E8D6F200E8D25046E080E8E2116
:100BC000056ED60E066EFF0E076EFCEC01F00501F9
:100BD000FD0E7C27FF0E7D2360C515F561C516F55A
:100BE000200E176E080E186E7CC519F57DC51AF516
:100BF000FDECF7F09BEF8AF089C504F58AC505F591
:100C00008BC506F58CC507F5CEECECF0045005104D
:100C1000D8A40DEF86F00FEF86F02FEF86F00501D8
:100C20008851D8B416EF86F018EF86F021EF86F0E1
:100C300088C520F87C07D8A07D07000E8E6F010EB6
:100C40008D6F200E8D25046E080E8E21056EDA0E36
:100C5000066EFF0E076EFCEC01F0E7EF85F0000E6C
:100C600005018F6F000E906F800E916F3F0E926F97
:100C7000000E776F000E766F89C504F58AC505F5FD
:100C80008BC506F58CC507F5000E086E000E096EC3
:100C9000000E0A6E000E0B6EB4ECF6F0D8B053EFF7
:100CA00086F055EF86F034EF87F062EF86F078C576
:100CB0008FF579C590F57AC591F57BC592F505015B
:100CC000764B772B8FC512F590C513F591C514F5AA
:100CD00092C515F5000E166E000E176E200E186EDA
:100CE000410E196EC5ECB0F012C578F513C579F553
:100CF00014C57AF515C57BF505017851895D046E3B
:100D000079518A59056E7A518B59066E7B518C59EF
:100D1000076EBFECFEF007BE99EF86F00750061095
:100D2000051009E1020E045CD8A099EF86F09BEF54
:100D300086F057EF86F078C52BF579C52CF57AC586
:100D40002DF57BC52EF589C52FF58AC530F58BC5E8
:100D500031F58CC532F54DECEBF0D8A0B2EF86F052
:100D6000B4EF86F057EF86F005018F51895D046E70
:100D700090518A59056E91518B59066E92518C593A
:100D8000076EBFECFEF007BED3EF86F007500610EB
:100D9000051007E1020E045CD8B0D1EF86F0D3EF66
:100DA00086F01BEF87F08FC589F590C58AF591C550
:100DB0008BF592C58CF534EF87F08FC52BF590C578
:100DC0002CF591C52DF592C52EF5000E2F6E000E57
:100DD000306E200E316E410E326E9EECBAF02BC595
:100DE0008FF52CC590F52DC591F52EC592F5050111
:100DF0007607D8A077078F51895D046E90518A5984
:100E0000056E91518B59066E92518C59076EBFEC4D
:100E1000FEF007BE19EF87F007500610051007E136
:100E2000020E045CD8B017EF87F019EF87F01BEFC4
:100E300087F0D3EF86F089C52BF58AC52CF58BC5D5
:100E40002DF58CC52EF58FC52FF590C530F591C5C4
:100E500031F592C532F54DECEBF0D8A032EF87F0CA
:100E600034EF87F0DDEF86F066C570F570C571F57B
:100E70005BBE3DEF87F03FEF87F045EF87F05AC547
:100E800069F55BC56AF54AEF87F0000E05016A6FE8
:100E9000060E696F69C574F56AC575F50501744B71
:100EA000752B660E7119D8A458EF87F05AEF87F0AA
:100EB0007AEF87F077BF61EF87F05FEF87F06DEF34
:100EC00087F0000E8F6F000E906F800E916F3F0EB7
:100ED000926F000E776F000E766F670E7019D8B4A0
:100EE00074EF87F076EF87F07AEF87F0765174270A
:100EF00077517523000E876F000E866F89C57EF5CA
:100F00008AC57FF58BC580F58CC581F58FC578F5D1
:100F100090C579F591C57AF592C57BF50BEF88F010
:100F20007EC52BF57FC52CF580C52DF581C52EF529
:100F30008FC52FF590C530F591C531F592C532F5C5
:100F40009EECBAF02BC544F52CC545F52DC546F5EC
:100F50002EC547F57CECD0F044C582F545C583F538
:100F600046C584F547C585F582C504F583C505F5F5
:100F700084C506F585C507F5C6ECE9F004C572F52C
:100F800005C573F57EC52BF57FC52CF580C52DF500
:100F900081C52EF582C516F583C517F584C518F5EC
:100FA00085C519F58FC512F590C513F591C514F5D2
:100FB00092C515F5C5ECB0F012C52FF513C530F587
:100FC00014C531F515C532F53BEC01F02BC57EF5A6
:100FD0002CC57FF52DC580F52EC581F58FC52BF568
:100FE00090C52CF591C52DF592C52EF5000E2F6EEE
:100FF000000E306E200E316E410E326E9EECBAF055
:101000002BC58FF52CC590F52DC591F52EC592F504
:101010000501864B872B7451865D8751800A586E77
:101020007551800A5858D8A018EF88F01AEF88F048
:1010300090EF87F08FC512F590C513F591C514F5A3
:1010400092C515F5000E166E000E176EA00E186EE6
:10105000400E196EC5ECB0F012C582F513C583F5CC
:1010600014C584F515C585F57EC52BF57FC52CF512
:1010700080C52DF581C52EF582C52FF583C530F5C8
:1010800084C531F585C532F54DECEBF0D8B04BEFAA
:1010900088F04DEF88F058EF88F0000E0501826F60
:1010A000000E836F000E846F000E856F81EF88F055
:1010B0007EC504F57FC505F580C506F581C507F534
:1010C00082C508F583C509F584C50AF585C50BF504
:1010D000B4ECF6F0D8A06FEF88F071EF88F081EFF4
:1010E00088F0050172B177EF88F079EF88F081EF31
:1010F00088F0000E826F000E836F000E846F000E6A
:10110000856F89C504F58AC505F58BC506F58CC5BF
:1011100007F582C508F583C509F584C50AF585C5B7
:101120000BF570ECA5F004C57EF505C57FF506C589
:1011300080F507C581F57EC52BF57FC52CF580C5EB
:101140002DF581C52EF5000E166E000E176E200EC1
:10115000186E410E196E78C512F579C513F57AC56A
:1011600014F57BC515F5C5ECB0F012C52FF513C508
:1011700030F514C531F515C532F54DECEBF0D8A0BE
:10118000C4EF88F0C6EF88F0EFEF88F00501764BEA
:10119000772B78C512F579C513F57AC514F57BC59B
:1011A00015F5000E166E000E176E200E186E410E0D
:1011B000196EC5ECB0F012C578F513C579F514C5F4
:1011C0007AF515C57BF5660E05017119D8A4EBEF0C
:1011D00088F0EDEF88F0EFEF88F0744B752B78C551
:1011E0008FF579C590F57AC591F57BC592F576C5F1
:1011F00067F577C568F505016F6B000E6C6F000E23
:101200006B6F000E876F000E866FECEF89F07EC566
:101210002BF57FC52CF580C52DF581C52EF58FC525
:101220002FF590C530F591C531F592C532F59EEC9C
:10123000BAF02BC544F52CC545F52DC546F52EC590
:1012400047F57CECD0F044C582F545C583F546C52D
:1012500084F547C585F582C504F583C505F584C5C4
:1012600006F585C507F5C6ECE9F005BE43EF89F044
:10127000055007E10A0E045CD8B041EF89F043EF56
:1012800089F053EF89F082C504F583C505F584C55F
:1012900006F585C507F5C6ECE9F004C572F505C588
:1012A00073F558EF89F0000E0501736F090E726F28
:1012B00005016F51D8A45FEF89F061EF89F089EFE4
:1012C00089F068BF68EF89F066EF89F089EF89F0EF
:1012D000200E8D25D96E080E8E21DA6E2E0EDF6E51
:1012E0008D4B8E2B7C07D8A07D07010E6F6F89EF89
:1012F00089F0200E8D25D96E080E8E21DA6E300E03
:10130000DF6E8D4B8E2B7C07D8A07D076B07D8A096
:101310006C076B516C11D8A490EF89F092EF89F0B3
:1013200079EF89F0200E8D25D96E080E8E21DA6EA8
:101330007251300FDF6E8D4B8E2B7C07D8A07D074E
:101340007EC52BF57FC52CF580C52DF581C52EF505
:1013500082C516F583C517F584C518F585C519F539
:101360008FC512F590C513F591C514F592C515F505
:10137000C5ECB0F012C52FF513C530F514C531F525
:1013800015C532F53BEC01F02BC57EF52CC57FF57C
:101390002DC580F52EC581F58FC52BF590C52CF593
:1013A00091C52DF592C52EF5000E2F6E000E306EF4
:1013B000200E316E410E326E9EECBAF02BC58FF5C9
:1013C0002CC590F52DC591F52EC592F50501670741
:1013D000D8A06807864B872B7451865D8751800A99
:1013E000586E7551800A5858D8B0F9EF89F0FBEF64
:1013F00089F009EF8AF08EBF07EF8AF08E5109E17C
:101400004B0E8D5DD8A007EF8AF009EF8AF007EF49
:1014100089F0000E876F4F0E866F200E8625D96EDD
:10142000080E8721DA6EDF6A200E586E080E596E9C
:101430008D51585E8E51595A86515824046E8751E9
:101440005920056E200E066E080E076E8DC508F534
:101450008EC509F5B5ECFFF005018D51865D8D6FE8
:101460008E5187598E6F8851D8A439EF8AF03CEF9E
:101470008AF0010E3DEF8AF0000E866F876B5CA24A
:1014800044EF8AF046EF8AF074EF8AF056EF8AF064
:101490008D07D8A08E07200E8D25D96E080E8E21BF
:1014A000DA6E300EDF6E7C07D8A07D077C51865D3A
:1014B0008751800A586E7D51800A5858D8B063EF22
:1014C0008AF065EF8AF074EF8AF08D51865D87515E
:1014D000800A586E8E51800A5858D8A072EF8AF050
:1014E00074EF8AF048EF8AF08851D8B47AEF8AF026
:1014F0007CEF8AF087EF8AF08D07D8A08E07200E48
:101500008D25D96E080E8E21DA6E88C5DFF48651DE
:101510007C5F87517D5B60C515F561C516F5200EB2
:101520008D25176E080E8E21186E7CC519F57DC5A8
:101530001AF5FDECF7F0120064C67BF665C67CF682
:1015400068C6D9F469C6DAF4DE6ADD6A62C6BEF539
:1015500063C6BFF58B0E0501C06F060EC16FCFECE1
:10156000EBF006017A6F7A51D8A4B9EF8AF0BBEF9D
:101570008AF0CBEF8AF020EE0FF06251D92663514A
:10158000DA22DF507A6F7A51D8B4C9EF8AF0CBEF04
:101590008AF0CEEF8AF07A51D9EF8EF020EE0EF07D
:1015A0006251D9266351DA22DFB2D9EF8AF0DBEF3C
:1015B0008AF0DEEF8AF0070ED9EF8EF020EE10F001
:1015C0006251D9266351DA2210EE10F06251E12601
:1015D0006351E222E6C46EF6E6C46FF6E6C470F626
:1015E000E6C471F666516E25726F67516F21736F95
:1015F000000E7021746F000E7121756FDE50725DE8
:10160000DE507359DE507459DE507559D8B00BEF67
:101610008BF00DEF8BF01BEF8BF020EE10F0625192
:10162000D9266351DA22DEC46AF6DDC46BF66A1D80
:10163000666F6B1D676F66516711D8A422EF8BF040
:1016400024EF8BF026EF8BF0D0EF8EF020EE10F031
:101650006251D9266351DA22FF0EDE146A6F010E41
:10166000DE146B6F000EDE146C6F000EDE146D6FF7
:101670006A516B116C116D11D8A441EF8BF043EFDF
:101680008BF014EF8EF020EE10F06251D9266351EA
:10169000DA22DEC46AF6DEC46BF6DEC46CF6DEC4A3
:1016A0006DF60A0E59EF8BF0D8906D336C336B33B7
:1016B0006A33E82E54EF8BF020EE0AF08B51D926D6
:1016C0008C51DA22DEC46EF6DDC46FF6FF0E6E2595
:1016D000706FFF0E6F21716F6A5170157D6F6B51C6
:1016E00071157E6F7D517E11D8A479EF8BF07BEF61
:1016F0008BF043EF8CF020EE10F06251D92663514D
:10170000DA22DE50DE10DE10DE10D8A48AEF8BF075
:101710008CEF8BF0BDEF8BF020EE06F06251D926F6
:101720006351DA22DEC481F6DEC482F6DEC483F6BB
:10173000DEC484F68151821183118411D8A4A3EFF1
:101740008BF0A5EF8BF0D9EF8BF062C645F663C640
:1017500046F6000E476F000E486F000E496F000EF0
:101760004A6FB4EC9DF045C681F646C682F647C680
:1017700083F648C684F6D9EF8BF062C645F663C699
:1017800046F620EE14F06251D9266351DA22DEC407
:1017900047F6DEC448F6DEC449F6DEC44AF6B4ECC9
:1017A0009DF045C681F646C682F647C683F648C612
:1017B00084F606018151821183118411D8A4E3EFCC
:1017C0008BF0E5EF8BF0E7EF8BF0D0EF8EF081053B
:1017D000821183118411D8A4F0EF8BF0F2EF8BF01B
:1017E000FDEF8BF020EE0FF06251D9266351DA2223
:1017F000020EDF6E020ED9EF8EF081290AE18229F6
:1018000008E1832906E18429D8A409EF8CF00BEFC5
:101810008CF016EF8CF020EE0FF06251D926635158
:10182000DA22010EDF6E010ED9EF8EF020EE14F0F9
:101830006251D9266351DA2281C6DEF482C6DEF413
:1018400083C6DEF484C6DEF420EE06F06251D926AB
:101850006351DA22DE50DE10DE10DE10D8A433EF42
:101860008CF035EF8CF043EF8CF020EE06F06251F7
:10187000D9266351DA2281C6DEF482C6DEF483C63D
:10188000DEF484C6DEF420EE0EF06251D9266351F8
:10189000DA22DFAE4EEF8CF050EF8CF08DEF8CF053
:1018A000220E6225006F000E6321016F20EE18F0FA
:1018B0006251D9266351DA22DEC402F6DEC403F691
:1018C000DEC404F6DEC405F6000E076F010E066FD7
:1018D00020EE01F08B51D9268C51DA22DF5006EC34
:1018E000F6F00009D8B477EF8CF079EF8CF084EF44
:1018F0008CF0060120EE0FF06251D9266351DA22F6
:10190000010EDF6E13EF8CF0060120EE0EF0625137
:10191000D9266351DA227F0EDF168BC610F58CC6EE
:1019200011F520EE14F06251D9266351DA22DEC49B
:1019300012F5DEC413F5DEC414F5DEC415F537EC7C
:10194000F2F010C587F611C588F612C589F613C5E1
:101950008AF606018751881189118A11D8A4B3EF3C
:101960008CF0B5EF8CF0BFEF8CF020EE0FF06251F1
:10197000D9266351DA22020EDF6EFAEF8BF07D5129
:1019800087277E518823000E8923000E8A2366C68E
:101990006AF667C66BF6090E6C6FD8906B336A33C4
:1019A0006C2FCDEF8CF06AC67FF66BC680F67F5148
:1019B0008011D8B4DEEF8CF0E0EF8CF0A4EF8DF066
:1019C0007F517D256A6F80517E216B6F20EE0AF07A
:1019D0008B51D9268C51DA226A51DE5C6B51DE586C
:1019E000D8B0F5EF8CF0F7EF8CF007EF8DF020EE2C
:1019F0000AF08B51D9268C51DA22DEC46AF6DDC496
:101A00006BF67D516A5D7F6F7E516B59806F7BC62F
:101A100000F67CC601F687C602F688C603F689C6BC
:101A200004F68AC605F67FC606F680C607F620EEDF
:101A300001F08B51D9268C51DA22DF5006ECF6F0FA
:101A40000009D8B426EF8DF028EF8DF033EF8DF03C
:101A5000060120EE0FF06251D9266351DA22010E01
:101A6000DF6E13EF8CF006017F516A6F80516B6F50
:101A70006C6B6D6B20EE18F06251D9266351DA223F
:101A8000DEC46EF6DEC46FF6DEC470F6DEC471F638
:101A900087516E5D726F88516F59736F895170599C
:101AA000746F8A517159756F6A51725D6B517359B8
:101AB0006C5174596D517559D8B061EF8DF063EF69
:101AC0008DF093EF8DF0220E6225046E000E6321DF
:101AD000056E20EE18F06251D9266351DA22DEC479
:101AE0006AF6DDC46BF687516A5F88516B5B090E3D
:101AF000D8906A376B37E82E78EF8DF06A517B25E6
:101B0000066E6B517C21076E020E096E000E086E88
:101B1000B5ECFFF0060120EE0EF06251D9266351BC
:101B2000DA227F0EDF167FC66AF680C66BF6090ED4
:101B3000D8906A376B37E82E98EF8DF06AC685F635
:101B40006BC686F66AEF8EF020EE18F06251D92649
:101B50006351DA228751DE180FE18851DE180CE15B
:101B60008951DE1809E18A51DE18D8B4BAEF8DF038
:101B7000BCEF8DF005EF8EF020EE0AF06251D92611
:101B80006351DA2210EE10F06251E1266351E22235
:101B9000DE50E65CDE50E658DE50E658DE50E65891
:101BA000D8B0D5EF8DF0D7EF8DF005EF8EF0220E87
:101BB0006225006F000E6321016F87C602F688C69A
:101BC00003F689C604F68AC605F6000E076F010EF5
:101BD000066F20EE01F08B51D9268C51DA22DF50AE
:101BE0005DECF6F00009D8B4F8EF8DF0FAEF8DF067
:101BF00005EF8EF0060120EE0FF06251D9266351F9
:101C0000DA22010EDF6E13EF8CF0060120EE18F0E1
:101C10006251D9266351DA2287C6DEF488C6DEF423
:101C200089C6DEF48AC6DEF420EE10F06251D926B1
:101C30006351DA22DEC46AF6DDC46BF6FF0E6A1564
:101C40006C6F010E6B156D6F6C510008856F6D51D7
:101C5000D8A0E82A0208866F8551665D86516759CB
:101C6000D8B035EF8EF037EF8EF03BEF8EF066C6D2
:101C700085F667C686F620EE10F06251D9266351CC
:101C8000DA22DEC46AF6DDC46BF6FF0E6A156C6FED
:101C9000010E6B156D6F6C5162256E6F6D51632176
:101CA0006F6F220E6E25046E000E6F21056E7BC6CF
:101CB00006F57CC607F585C608F586C609F5B5ECB8
:101CC000FFF0060120EE0EF06251D9266351DA22B0
:101CD000000EDB8E8551665F8651675B68C6D9F45E
:101CE00069C6DAF48551DE268651DD2285517B27CF
:101CF00086517C2320EE10F06251D9266351DA22FE
:101D00008551DE268651DE22000EDE22DE2220EE06
:101D100010F06251D9266351DA2210EE0AF06251B6
:101D2000E1266351E222DE50E65CDE50E658DE50EA
:101D3000E658DE50E658D8A0A0EF8EF0A2EF8EF065
:101D4000B2EF8EF020EE0AF06251D9266351DA220A
:101D5000DEC476F6DEC477F6DEC478F6DEC479F645
:101D6000C0EF8EF020EE10F06251D9266351DA22D6
:101D7000DEC476F6DEC477F6DEC478F6DEC479F625
:101D800020EE0AF06251D9266351DA2276C6DEF4DB
:101D900077C6DEF478C6DEF479C6DEF41BEF8BF08E
:101DA00020EE0EF06251D9266351DA22000EDB8C50
:101DB000000E120062C6BEF563C6BFF5850E0501B2
:101DC000C06F060EC16FCFECEBF00601806F805143
:101DD000D8A4EDEF8EF0EFEF8EF0F7EF8EF020EE5F
:101DE0000FF06251D9266351DA22DF50806F8051A3
:101DF000D8B4FDEF8EF0FFEF8EF002EF8FF0805140
:101E0000DAEF92F020EE0AF06251D9266351DA221D
:101E10006451DE5C6551DE586651DE586751DE580C
:101E2000D8B015EF8FF017EF8FF032EF8FF020EE74
:101E30000EF06251D9266351DA22DFB222EF8FF021
:101E400024EF8FF032EF8FF020EE0AF06251D926A6
:101E50006351DA22DEC464F6DEC465F6DEC466F6DB
:101E6000DEC467F620EE10F06251D9266351DA2203
:101E7000DEC478F6DEC479F6DEC47AF6DEC47BF61C
:101E8000000E7C6F000E7D6F000E7E6F000E7F6F68
:101E900020EE10F06251D9266351DA227CC6DEF4BE
:101EA0007DC6DEF47EC6DEF47FC6DEF464516511C5
:101EB00066116711D8B45FEF8FF061EF8FF0E5EF37
:101EC00091F020EE0AF08551D9268651DA22DEC43F
:101ED00068F6DDC469F668516A6F69516B6F6C6BA7
:101EE0006D6B090ED8906A376B376C376D37E82EFB
:101EF00072EF8FF06AC681F66BC682F66CC683F607
:101F00006DC684F6785179117A117B11D8B48BEFB4
:101F10008FF08DEF8FF02AEF90F0FF0E6425046EA6
:101F2000FF0E6521056EFF0E6621066EFF0E67210E
:101F3000076E81C608F582C609F583C60AF584C610
:101F40000BF55CECF7F004C568F605C569F606C547
:101F50006AF607C56BF6FF0E06017825046EFF0EC4
:101F60007921056EFF0E7A21066EFF0E7B21076E2A
:101F700081C608F582C609F583C60AF584C60BF545
:101F80005CECF7F004500601685D05506959065095
:101F90006A5907506B59D8A0D0EF8FF0D2EF8FF06D
:101FA0002AEF90F0FF0E8125686FFF0E8221696F86
:101FB000FF0E83216A6FFF0E84216B6F681D6C6FAB
:101FC000691D6D6F6A1D6E6F6B1D6F6FFF0E78253B
:101FD000706FFF0E7921716FFF0E7A21726FFF0E05
:101FE0007B21736F6C517015746F6D517115756F26
:101FF0006E517215766F6F517315776F20EE10F07A
:102000006251D9266351DA2274C6DEF475C6DEF455
:1020100076C6DEF477C6DEF420EE10F06251D926E3
:102020006351DA22DE50645FDE50655BDE50665B32
:10203000DD50675B20EE14F06251D9266351DA223D
:10204000DEC487F6DEC488F6DEC489F6DEC48AF60E
:10205000A5EF90F020EE06F06251D9266351DA2206
:10206000DEC487F6DEC488F6DEC489F6DEC48AF6EE
:102070008751881189118A11D8A441EF90F043EF5C
:1020800090F097EF90F062C645F663C646F6000EF4
:10209000476F000E486F000E496F000E4A6FB4EC98
:1020A0009DF045C687F646C688F647C689F648C6F7
:1020B0008AF606018705881189118A11D8A463EF71
:1020C00090F065EF90F070EF90F020EE0FF062511D
:1020D000D9266351DA22020EDF6E020EDAEF92F099
:1020E00087290AE1882908E1892906E18A29D8A4F3
:1020F0007CEF90F07EEF90F089EF90F020EE0FF003
:102100006251D9266351DA22010EDF6E010EDAEF39
:1021100092F020EE06F06251D9266351DA2287C68A
:10212000DEF488C6DEF489C6DEF48AC6DEF420EE6C
:1021300014F06251D9266351DA2287C6DEF488C6CC
:10214000DEF489C6DEF48AC6DEF48751881189116F
:102150008A11D8B4AEEF90F0B0EF90F0E5EF91F0C7
:102160006AEF91F08151645F8251655B8351665BD8
:102170008451675B20EE10F06251D9266351DA2258
:102180008151DE268251DE228351DE228451DE22FD
:1021900020EE0EF06251D9266351DA22DFA2D3EF8E
:1021A00090F0D5EF90F001EF91F062C645F663C66E
:1021B00046F687C647F688C648F689C649F68AC6EF
:1021C0004AF6B4EC9DF045C687F646C688F647C683
:1021D00089F648C68AF606018751881189118A1145
:1021E000D8A4F5EF90F0F7EF90F017EF91F0000E14
:1021F000646F000E656F000E666F000E676F79EFFB
:1022000091F062C624F663C625F687C626F688C610
:1022100027F689C628F68AC629F6E0ECB4F024C66B
:1022200087F625C688F626C689F627C68AF60601E9
:1022300087290AE1882908E1892906E18A29D8A4A1
:1022400024EF91F026EF91F030EF91F020EE0FF0B7
:102250006251D9266351DA22010EDF6E86EF90F0CB
:102260008A518911881109E1020E875DD8A03BEFE0
:1022700091F03DEF91F052EF91F020EE18F0855182
:10228000D9268651DA22DE50875DDE508859DE502D
:102290008959DE508A59D8A050EF91F052EF91F051
:1022A0005CEF91F020EE0FF06251D9266351DA22F3
:1022B000020EDF6E6DEF90F020EE14F06251D92621
:1022C0006351DA2287C6DEF488C6DEF489C6DEF4FE
:1022D0008AC6DEF46451815D655182596651835925
:1022E00067518459D8A077EF91F079EF91F0B2EF70
:1022F00090F020EE10F06251D9266351DA22645139
:10230000DE266551DE226651DE226751DE22FF0E97
:102310006415686F010E6515696F000E66156A6FAA
:10232000000E67156B6F685169116A116B11D8B493
:102330009CEF91F09EEF91F0E5EF91F085C610F5DE
:1023400086C611F587C612F588C613F589C614F539
:102350008AC615F537ECF2F010C57CF611C57DF68E
:1023600012C57EF613C57FF606017C517D117E11E4
:102370007F11D8A4BEEF91F0C0EF91F0CAEF91F0B9
:1023800020EE0FF06251D9266351DA22020EDF6E81
:102390006DEF90F064C668F665C669F666C66AF6C3
:1023A00067C66BF60A0EDAEF91F0D8906B336A339A
:1023B00069336833E82ED5EF91F068517C27695175
:1023C0007D236A517E236B517F2320EE10F06251F2
:1023D000D9266351DA2210EE0AF06251E1266351E8
:1023E000E222DE50E65CDE50E658DE50E658DE5073
:1023F000E658D8B0FEEF91F000EF92F01CEF92F0AB
:1024000020EE10F06251D9266351DA2210EE0AF064
:102410006251E1266351E222DEC4E6F4DEC4E6F452
:10242000DEC4E6F4DEC4E6F420EE0EF06251D926F6
:102430006351DA22000EDB8C20EE10F06251D926B7
:102440006351DA22FF0EDE14686F010EDE14696F2D
:10245000000EDE146A6F000EDE146B6F6851691196
:102460006A116B11D8B437EF92F039EF92F0FFEFA9
:102470008EF020EE18F06251D9266351DA227C5199
:10248000DE180FE17D51DE180CE17E51DE1809E106
:102490007F51DE18D8B44FEF92F051EF92F0FFEF7A
:1024A0008EF020EE0EF06251D9266351DA22DFAEB3
:1024B0005CEF92F05EEF92F09BEF92F0220E6225BD
:1024C000006F000E6321016F20EE18F06251D926D3
:1024D0006351DA22DEC402F6DEC403F6DEC404F67B
:1024E000DEC405F6000E076F010E066F20EE01F048
:1024F0008551D9268651DA22DF5006ECF6F0000924
:10250000D8B485EF92F087EF92F092EF92F0060147
:1025100020EE0FF06251D9266351DA22010EDF6EF0
:1025200086EF90F0060120EE0EF06251D92663513D
:10253000DA227F0EDF16220E6225006F000E632165
:10254000016F7CC602F67DC603F67EC604F67FC622
:1025500005F6000E076F010E066F20EE01F08551A3
:10256000D9268651DA22DF505DECF6F00009D8B4A6
:10257000BCEF92F0BEEF92F0C9EF92F0060120EEB0
:102580000FF06251D9266351DA22010EDF6E86EF19
:1025900090F0060120EE18F06251D9266351DA223C
:1025A0007CC6DEF47DC6DEF47EC6DEF47FC6DEF4D5
:1025B000FFEF8EF012000601AF51B011D8A4E3EF87
:1025C00092F0E5EF92F0E8EF92F0090E9AEF96F0B4
:1025D0003F0EB317B10E816F060E826FD40E836F5C
:1025E000060E846FB3C685F600EC80F00601D66F48
:1025F000D651D8A4FEEF92F000EF93F08AEF96F058
:10260000D4C6D7F6D5C6D8F6D70E846F060E856F1A
:10261000B1C686F6B2C687F65DECC4F00601D66F89
:10262000D651D8A416EF93F018EF93F021EF93F062
:10263000FEAF1DEF93F01FEF93F021EF93F0060E26
:10264000D66FB3C6B4F61C0EB417D8B42AEF93F005
:102650002CEF93F047EF94F0D651D8B432EF93F0CB
:1026600034EF93F048EF93F0040ED619D8A43BEF63
:1026700093F03DEF93F045EF93F0D70E886F060E81
:10268000896F17ECF0F00601D66FB38760EF93F017
:10269000DBC6B4F6110EB417D8B451EF93F053EF74
:1026A00093F057EF93F0070ED66F60EF93F0B3A55A
:1026B0005CEF93F05EEF93F060EF93F0080ED66F4F
:1026C000D651D8A466EF93F068EF93F06AEF94F0D8
:1026D000B3A76DEF93F06FEF93F06AEF94F0D0EC47
:1026E00003F004C5C0F605C5C1F606C5C2F607C5A8
:1026F000C3F60E0E0601F125046E000EF221056EE2
:10270000C0C606F5C1C607F5C2C608F5C3C609F5B9
:102710003BECFDF0160E0601F125046E000EF221D1
:10272000056EC0C606F5C1C607F5C2C608F5C3C624
:1027300009F53BECFDF0D4C60BF5D5C60CF5F1C69A
:102740000DF5F2C60EF597ECFBF00BC5C4F60CC503
:10275000C5F60DC5C6F60EC5C7F6060120EE0BF090
:10276000F151D926F251DA22200EDF6ED4C608F5D7
:10277000D5C609F5F1C60AF5F2C60BF5000E0C6ECA
:10278000000E0D6E000E0E6E000E0F6E87EC00F048
:102790001C0E0601F125046E000EF221056E000EDE
:1027A000066E000E076E000E086E000E096E3BEC02
:1027B000FDF0060120EE04F0D451D926D551DA22DD
:1027C000010EDF6EC451C511C611C711D8B4EBEFAD
:1027D00093F0EDEF93F06AEF94F020EE30F0D451E7
:1027E000D926D551DA22DEC4C8F6DEC4C9F6DEC465
:1027F000CAF6DEC4CBF6D70E456F060E466FC4C6CA
:1028000047F6C5C648F6C6C649F6C7C64AF6000E1C
:102810004B6F000E4C6F000E4D6F000E4E6F4EEC66
:10282000CDF00601D66FD651D8A419EF94F01BEF66
:1028300094F06AEF94F0D4C61AF6D5C61BF6C8C653
:102840001CF6C9C61DF6CAC61EF6CBC61FF667EC37
:10285000F1F00601D66FFF0EC425B46FFF0EC5213F
:10286000B56FFF0EC621B66FFF0EC721B76F20EE02
:102870000CF0D451D926D551DA22B4C6DEF4B5C64F
:10288000DEF4B6C6DEF4B7C6DEF46AEF94F0D651D5
:10289000D8A44DEF94F04FEF94F06AEF94F0DBA9D9
:1028A00054EF94F056EF94F05AEF94F0040ED66F74
:1028B0006AEF94F0B3A35FEF94F061EF94F06AEFE6
:1028C00094F0DBA166EF94F068EF94F06AEF94F077
:1028D000070ED66FD651D8A470EF94F072EF94F033
:1028E00098EF94F0B3A777EF94F079EF94F07AEF44
:1028F00094F0B38D20EE30F0D451D926D551DA22A0
:1029000010EE1CF0AF51E126B051E222DEC4E6F435
:10291000DEC4E6F4DEC4E6F4DEC4E6F420EE20F025
:10292000AF51D926B051DA22F1C6DEF4F2C6DDF499
:10293000D651D8A49EEF94F0A0EF94F08AEF96F0D1
:10294000D4C60BF5D5C60CF5F1C60DF5F2C60EF5DD
:1029500097ECFBF0060120EE06F0AF51D926B051FE
:10296000DA220BC5DEF40CC5DEF40DC5DEF40EC5AF
:10297000DEF41C0EF125046E000EF221056E4FEC04
:10298000F5F0060120EE0AF0AF51D926B051DA2257
:1029900004C5DEF405C5DEF406C5DEF407C5DEF4C5
:1029A000AFC6D9F4B0C6DAF4D4C6DEF4D5C6DDF4C9
:1029B00020EE06F0D451D926D551DA2210EE02F0DD
:1029C000AF51E126B051E222DEC4E6F4DDC4E5F405
:1029D00020EE0EF0AF51D926B051DA22B3C6DFF4A3
:1029E00020EE0FF0AF51D926B051DA22DF6A20EE87
:1029F00018F0AF51D926B051DA22DE6ADE6ADE6AFB
:102A0000DD6A20EE10F0AF51D926B051DA22DE6A2D
:102A1000DE6ADE6ADD6A220EAF25046E000EB0218A
:102A2000056E000E076E000E066E020E096E000E99
:102A3000086E52EC02F00601B3AB21EF95F023EFE4
:102A400095F08AEF96F020EE0AF0AF51D926B051FA
:102A5000DA22DE50DE10DE10DE10D8B432EF95F050
:102A600034EF95F08AEF96F020EE0AF0AF51D926B8
:102A7000B051DA2210EE10F0AF51E126B051E2224F
:102A8000DEC4E6F4DEC4E6F4DEC4E6F4DEC4E6F456
:102A900020EE0AF0D451D926D551DA22DEC4B4F69C
:102AA000DDC4B5F6B451B66FB551B76FB86BB96B3D
:102AB000090ED890B637B737B837B937E82E59EF7F
:102AC00095F0B6C6BCF6B7C6BDF6B8C6BEF6B9C672
:102AD000BFF620EE06F0AF51D926B051DA22DEC49F
:102AE000D0F6DEC4D1F6DEC4D2F6DEC4D3F620EED4
:102AF0000AF0AF51D926B051DA22DEC4CCF6DEC4DA
:102B0000CDF6DEC4CEF6DEC4CFF6C5EF95F0AFC687
:102B100024F6B0C625F6D0C626F6D1C627F6D2C60C
:102B200028F6D3C629F6E0ECB4F024C6D0F625C6C4
:102B3000D1F626C6D2F627C6D3F60601D351D21156
:102B4000D11107E1020ED05DD8B0A9EF95F0ABEF3F
:102B500095F0ADEF95F0020ED66FD0290AE1D1299C
:102B600008E1D22906E1D329D8A4B9EF95F0BBEF4B
:102B700095F0BDEF95F0010ED66FBC51CC5FBD5105
:102B8000CD5BBE51CE5BBF51CF5BD651D8A4CBEF4E
:102B900095F0CDEF95F0DCEF95F0CC51BC5DCD51CB
:102BA000BD59CE51BE59CF51BF59D8A0DAEF95F0DB
:102BB000DCEF95F087EF95F020EE14F0AF51D926B9
:102BC000B051DA22D0C6DEF4D1C6DEF4D2C6DEF4CD
:102BD000D3C6DEF4D651D8A4F0EF95F0F2EF95F01D
:102BE0008AEF96F0FF0ECC15B46F010ECD15B56FC0
:102BF000000ECE15B66F000ECF15B76FB451B511DC
:102C0000B611B711D8B407EF96F009EF96F08AEF36
:102C100096F0D4C610F5D5C611F5D0C612F5D1C6BA
:102C200013F5D2C614F5D3C615F537ECF2F010C57E
:102C3000C8F611C5C9F612C5CAF613C5CBF606010A
:102C4000C851C911CA11CB11D8A429EF96F02BEFA6
:102C500096F02FEF96F0020ED66F8AEF96F0CCC664
:102C6000B4F6CDC6B5F6CEC6B6F6CFC6B7F60A0EE2
:102C70003FEF96F0D890B733B633B533B433E82E80
:102C80003AEF96F0C851B425B86FC951B521B96F64
:102C9000CA51B621BA6FCB51B721BB6F20EE18F0E5
:102CA000AF51D926B051DA22B8C6DEF4B9C6DEF487
:102CB000BAC6DEF4BBC6DEF4220EAF25006F000EEE
:102CC000B021016F20EE18F0AF51D926B051DA22B1
:102CD000DEC402F6DEC403F6DEC404F6DEC405F686
:102CE000000E076F010E066F20EE01F0D451D926B9
:102CF000D551DA22DF505DECF6F00009D8B483EF4D
:102D000096F085EF96F08AEF96F0010E0601D66FE9
:102D10008AEF96F00601D651D8B491EF96F093EF72
:102D200096F099EF96F0AFC6D9F4B0C6DAF4DE6A41
:102D3000DD6AD651120095C5D9F496C5DAF4DEC421
:102D4000F6F4DDC4F7F4000EF86E0800F550250A1D
:102D5000D8A4ADEF96F0AFEF96F013EF9AF095C5CB
:102D6000D9F496C5DAF4DE2A000EDD22000E070142
:102D70009E6F000E9D6F9DC75CF55A685B680501EC
:102D80009D6BE3EF96F05C8295C5D9F496C5DAF4B5
:102D9000DE2A000EDD22E3EF96F0010E9D6FE3EFD9
:102DA00096F095C5D9F496C5DAF4DEC4F6F4DDC420
:102DB000F7F4000EF86E0800F550300AD8B4C3EFEF
:102DC00096F0CDEF96F09D51D8B4E9EF96F0EBEF89
:102DD00096F0D1EF96F095C504F596C505F597C523
:102DE00006F598C507F59DECF2F004C59DF705C5FD
:102DF0009EF707019EBF01EF97F0FFEF96F006EFF9
:102E000097F05C809D6D9E1FD8B09E2B95C5D9F420
:102E100096C5DAF4DEC4F6F4DDC4F7F4000EF86EFD
:102E20000800F5502E0AD8A418EF97F01AEF97F083
:102E30002FEF97F095C5D9F496C5DAF4DE2A000E87
:102E4000DD2295C504F596C505F597C506F598C527
:102E500007F59DECF2F004C55AF505C55BF595C57F
:102E6000D9F496C5DAF4DEC4F6F4DDC4F7F4000E46
:102E7000F86E0800F550630AD8A441EF97F043EFCD
:102E800097F067EF97F095C5D9F496C5DAF4DE2A86
:102E9000000EDD2297C5D9F498C5DAF4DFC499F5A0
:102EA000020EDE26DFC49AF5000EDD2299C5D9F4A4
:102EB0009AC5DAF4DF500501A26F93C50EF594C5EB
:102EC0000FF5A2C510F503ECF3F029EF9AF095C5C4
:102ED000D9F496C5DAF4DEC4A3F5DDC4A4F5A3C520
:102EE000F6F4A4C5F7F4000EF86E0800F5C4A2F5D8
:102EF00085EF97F0A34BA42B9DEF97F0690EA26F7F
:102F00009DEF97F0A26B9DEF97F00501A251580A33
:102F1000D8B47EEF97F03C0AD8B47EEF97F00D0A54
:102F2000D8B47EEF97F0050AD8B47AEF97F0140A78
:102F3000D8B47EEF97F082EF97F0A3C5F6F4A4C55E
:102F4000F7F4000EF86E0800F550640AD8B4ABEF41
:102F500097F0ADEF97F0F4EF97F0A3C5F6F4A4C5A2
:102F6000F7F4000EF86E0800F550690AD8A4BBEF1C
:102F700097F0BDEF97F01DEF98F0F4EF97F097C53D
:102F8000D9F498C5DAF4DFC499F5020EDE26DFC461
:102F90009AF5000EDD2299C5D9F49AC5DAF4DEC49B
:102FA0009EF5DDC49FF5000E9FBFFF0EA06FA16FC1
:102FB000FFEF97F097C5D9F498C5DAF4DFC499F517
:102FC000040EDE26DFC49AF5000EDD2299C5D9F481
:102FD0009AC5DAF4DEC49EF5DEC49FF5DEC4A0F522
:102FE000DEC4A1F5FFEF97F0A251690AD8B4BFEF94
:102FF00097F0050AD8B4DAEF97F0FFEF97F0010EDB
:10300000A325996F000EA4219A6F95C5D9F496C592
:10301000DAF499C5DEF49AC5DDF493C51EF594C5BE
:103020001FF59EC520F59FC521F5A0C522F5A1C5B8
:1030300023F57BECD3F029EF9AF0A3C5F6F4A4C5F1
:10304000F7F4000EF86E0800F550780AD8B42BEFAC
:1030500098F02DEF98F075EF98F0A3C5F6F4A4C59D
:10306000F7F4000EF86E0800F550580AD8A43BEFAC
:1030700098F03DEF98F0BBEF98F075EF98F097C59A
:10308000D9F498C5DAF4DFC499F5020EDE26DFC460
:103090009AF5000EDD2299C5D9F49AC5DAF4DEC49A
:1030A0009BF5DDC49CF59BC59EF59CC59FF5A06B6B
:1030B000A16B80EF98F097C5D9F498C5DAF4DFC416
:1030C00099F5040EDE26DFC49AF5000EDD2299C5BF
:1030D000D9F49AC5DAF4DEC49EF5DEC49FF5DEC4E9
:1030E000A0F5DEC4A1F580EF98F0A251690AD8B42A
:1030F0003FEF98F0050AD8B45BEF98F080EF98F0B6
:10310000010EA325996F000EA4219A6F95C5D9F4DD
:1031100096C5DAF499C5DEF49AC5DDF4A9EF98F006
:1031200093C51EF594C51FF59EC520F59FC521F5D5
:10313000A0C522F5A1C523F5A3C5F6F4A4C5F7F4EF
:10314000000EF86E0800F5C424F568ECDEF029EFF7
:103150009AF0A3C5F6F4A4C5F7F4000EF86E0800C3
:10316000F550580AD8B490EF98F0200AD8B490EFF0
:1031700098F0BBEF98F09D6B95C5D9F496C5DAF43D
:10318000DEC4F6F4DDC4F7F4000EF86E0800F55066
:10319000730AD8A4CEEF98F0D0EF98F0DBEF98F058
:1031A00095C5D9F496C5DAF4DE2A000EDD22010EAB
:1031B0009D6F31EF99F095C5D9F496C5DAF4DEC468
:1031C000F6F4DDC4F7F4000EF86E0800F5506C0A52
:1031D000D8A4EDEF98F0EFEF98F031EF99F095C5A6
:1031E000D9F496C5DAF4DEC499F5DDC49AF5010E7A
:1031F0009927000E9A2399C5F6F49AC5F7F4000EA4
:10320000F86E0800F5506C0AD8A409EF99F00BEF9E
:1032100099F031EF99F095C5D9F496C5DAF4DEC48A
:1032200099F5DDC49AF5020E9927000E9A2399C5E7
:10323000F6F49AC5F7F4000EF86E0800F550730A1C
:10324000D8A425EF99F027EF99F031EF99F0030E0C
:1032500095C5D9F496C5DAF4DE26000EDD22D7EF47
:1032600098F09D51D8B437EF99F039EF99F055EFB8
:1032700099F093C50EF594C50FF597C5D9F498C587
:10328000DAF4DFC499F5020EDE26DFC49AF5000EEB
:10329000DD2299C5D9F49AC5DAF4DEC410F5DDC48F
:1032A00011F5CFECDCF029EF9AF095C5D9F496C56D
:1032B000DAF4DEC4A3F5DDC4A4F5A3C5F6F4A4C511
:1032C000F7F4000EF86E0800F5C4A2F573EF99F05C
:1032D000A34BA42B82EF99F06C0EA26F82EF99F0B2
:1032E000A26B82EF99F0A2514C0AD8B468EF99F022
:1032F0002A0AD8B46CEF99F00A0AD8B468EF99F0AA
:1033000070EF99F0A3C5F6F4A4C5F7F4000EF86EBB
:103310000800F550660AD8A490EF99F092EF99F062
:103320000AEF9AF0C8EF99F097C5D9F498C5DAF486
:10333000DFC499F5040EDE26DFC49AF5000EDD2207
:1033400099C5D9F49AC5DAF4DEC49EF5DEC49FF5BA
:10335000DEC4A0F5DEC4A1F5D3EF99F097C5D9F48A
:1033600098C5DAF4DFC499F5040EDE26DFC49AF5B9
:10337000000EDD2299C5D9F49AC5DAF4DEC49EF5B3
:10338000DEC49FF5DEC4A0F5DEC4A1F5D3EF99F04D
:10339000A2514C0AD8B4AEEF99F0200AD8B494EFF9
:1033A00099F0D3EF99F0010EA325996F000EA42197
:1033B0009A6F95C5D9F496C5DAF499C5DEF49AC525
:1033C000DDF4FCEF99F093C560F594C561F59EC5F9
:1033D00062F59FC563F5A0C564F5A1C565F5A3C5F4
:1033E000F6F4A4C5F7F4000EF86E0800F5C466F50F
:1033F0006CEC85F029EF9AF0A3C5F6F4A4C5F7F4B8
:10340000000EF86E0800F550660AD8B4E3EF99F0A4
:103410000AEF9AF095C5D9F496C5DAF4DE2A000EC3
:10342000DD2229EF9AF095C5D9F496C5DAF4DEC409
:10343000F6F4DDC4F7F4000EF86E0800F550056EE2
:10344000066A93C507F594C508F568ECF3F00AEF32
:103450009AF0120040C65BF641C65CF644C6D9F449
:1034600045C6DAF4DE6ADD6A3EC6BEF53FC6BFF584
:10347000670E0501C06F060EC16FCFECEBF00601C1
:10348000566F5651D8A447EF9AF049EF9AF059EF8A
:103490009AF020EE0FF03E51D9263F51DA22DF504C
:1034A000566F5651D8B457EF9AF059EF9AF05CEF37
:1034B0009AF05651B3EF9DF020EE0EF03E51D92612
:1034C0003F51DA22DFB067EF9AF069EF9AF06CEFC4
:1034D0009AF0070EB3EF9DF020EE10F03E51D92682
:1034E0003F51DA22DEC446F6DEC447F6DEC448F6B3
:1034F000DEC449F620EE0AF03E51D9263F51DA22C9
:10350000DEC44AF6DEC44BF6DEC44CF6DEC44DF62D
:1035100046514A5D526F47514B59536F48514C5970
:10352000546F49514D59556F4251466F4351476F42
:10353000486B496B4651525D475153594851545954
:1035400049515559D8B0A7EF9AF0A9EF9AF0ADEFCD
:103550009AF052C642F653C643F642514311D8A4DC
:10356000B4EF9AF0B6EF9AF0B8EF9AF0B2EF9DF0A0
:1035700020EE10F03E51D9263F51DA22FF0EDE1424
:10358000466F010EDE14476F000EDE14486F000E0A
:10359000DE14496F4651471148114911D8A4D3EFA1
:1035A0009AF0D5EF9AF045EF9DF020EE10F03E51E5
:1035B000D9263F51DA22DEC446F6DEC447F6DEC421
:1035C00048F6DEC449F60A0EEBEF9AF0D89049337C
:1035D000483347334633E82EE6EF9AF020EE0AF000
:1035E0006751D9266851DA22DEC44AF6DDC44BF6AB
:1035F000FF0E4A254C6FFF0E4B214D6F46514C1567
:103600005D6F47514D155E6F5D515E11D8A40BEF94
:103610009BF00DEF9BF08AEF9BF020EE10F03E51F7
:10362000D9263F51DA22DE50DE10DE10DE10D8A49B
:103630001CEF9BF01EEF9BF02EEF9BF020EE06F0B0
:103640003E51D9263F51DA22DEC457F6DEC458F681
:10365000DEC459F6DEC45AF64AEF9BF03EC624F6A5
:103660003FC625F620EE14F03E51D9263F51DA220E
:10367000DEC426F6DEC427F6DEC428F6DEC429F64C
:10368000E0ECB4F024C657F625C658F626C659F61F
:1036900027C65AF606015A515911581107E1020E70
:1036A000575DD8B056EF9BF058EF9BF063EF9BF05F
:1036B00020EE0FF03E51D9263F51DA22020EDF6E86
:1036C000020EB3EF9DF057290AE1582908E1592964
:1036D00006E15A29D8A46FEF9BF071EF9BF07CEFC5
:1036E0009BF020EE0FF03E51D9263F51DA22010E19
:1036F000DF6E010EB3EF9DF020EE14F03E51D9269F
:103700003F51DA2257C6DEF458C6DEF459C6DEF45D
:103710005AC6DEF467C610F568C611F520EE14F03F
:103720003E51D9263F51DA22DEC412F5DEC413F52C
:10373000DEC414F5DEC415F537ECF2F010C563F6FF
:1037400011C564F612C565F613C566F60601635128
:10375000641165116611D8A4B0EF9BF0B2EF9BF035
:10376000BCEF9BF020EE0FF03E51D9263F51DA22FC
:10377000020EDF6E60EF9BF05D5163275E516423A4
:10378000000E6523000E662342C646F643C647F682
:10379000090E486FD89047334633482FCAEF9BF045
:1037A00046C65FF647C660F65F516011D8B4DBEFDE
:1037B0009BF0DDEF9BF0A6EF9CF05F515D25466F1F
:1037C00060515E21476F20EE0AF06751D92668519B
:1037D000DA224651DE5C4751DE58D8B0F2EF9BF05A
:1037E000F4EF9BF004EF9CF020EE0AF06751D9262D
:1037F0006851DA22DEC446F6DDC447F65D51465D07
:103800005F6F5E514759606F5BC600F65CC601F69C
:1038100063C602F664C603F665C604F666C605F618
:103820005FC606F660C607F620EE01F06751D9269E
:103830006851DA22DF505DECF6F00009D8B423EFCE
:103840009CF025EF9CF030EF9CF0060120EE0FF08D
:103850003E51D9263F51DA22010EDF6E79EF9BF0FF
:10386000060120EE0EF03E51D9263F51DA22DFAE9E
:103870003CEF9CF03EEF9CF094EF9CF05F51466F64
:103880006051476F486B496B20EE18F03E51D926C6
:103890003F51DA22DEC44AF6DEC44BF6DEC44CF6F3
:1038A000DEC44DF663514A5D4E6F64514B594F6F04
:1038B00065514C59506F66514D59516F46514E5D8F
:1038C00047514F594851505949515159D8B06BEF50
:1038D0009CF06DEF9CF094EF9CF020EE18F03E51C0
:1038E000D9263F51DA22DEC446F6DDC447F66351DD
:1038F000465F6451475B090ED89046374737E82E3C
:103900007CEF9CF046515B25046E47515C21056EAF
:10391000220E3E25066E000E3F21076E020E096E36
:10392000000E086EB5ECFFF05FC646F660C647F6BF
:10393000090ED890060146374737E82E99EF9CF0DC
:1039400046C661F647C662F692EF9DF020EE18F08B
:103950003E51D9263F51DA226351DE180FE16451FE
:10396000DE180CE16551DE1809E16651DE18D8B4A5
:10397000BCEF9CF0BEEF9CF036EF9DF020EE0EF019
:103980003E51D9263F51DA22DFAEC9EF9CF0CBEF92
:103990009CF008EF9DF0220E3E25006F000E3F21A7
:1039A000016F20EE18F03E51D9263F51DA22DEC4D5
:1039B00002F6DEC403F6DEC404F6DEC405F6000E2D
:1039C000076F010E066F20EE01F06751D92668518E
:1039D000DA22DF5006ECF6F00009D8B4F2EF9CF0E2
:1039E000F4EF9CF0FFEF9CF0060120EE0FF03E514B
:1039F000D9263F51DA22010EDF6E79EF9BF00601E6
:103A000020EE0EF03E51D9263F51DA227F0EDF160E
:103A1000220E3E25006F000E3F21016F63C602F6A5
:103A200064C603F665C604F666C605F6000E076FA3
:103A3000010E066F20EE01F06751D9266851DA2297
:103A4000DF505DECF6F00009D8B429EF9DF02BEFC4
:103A50009DF036EF9DF0060120EE0FF03E51D92685
:103A60003F51DA22010EDF6E79EF9BF0060120EE66
:103A700018F03E51D9263F51DA2263C6DEF464C6FF
:103A8000DEF465C6DEF466C6DEF420EE10F03E51CC
:103A9000D9263F51DA22DEC446F6DDC447F6FF0ED2
:103AA0004615486F010E4715496F48510008616F70
:103AB0004951D8A0E82A0208626F6151425D625103
:103AC0004359D8B066EF9DF068EF9DF06CEF9DF024
:103AD00042C661F643C662F65BC604F55CC605F5F0
:103AE00020EE10F03E51D9263F51DA22DEC446F6D0
:103AF000DDC447F6FF0E4615486F010E4715496FA6
:103B000048513E254A6F49513F214B6F220E4A25AD
:103B1000066E000E4B21076E61C608F562C609F5F8
:103B2000B5ECFFF006016151425F6251435B44C650
:103B3000D9F445C6DAF46151DE266251DD226151C5
:103B40005B2762515C2320EE10F03E51D9263F5195
:103B5000DA226151DE266251DE22000EDE22DE22F2
:103B6000ADEF9AF0000E120045C6D9F446C6DAF45D
:103B7000DEC45CF6DDC45DF606014751481149110B
:103B80004A11D8A4C6EF9DF0C8EF9DF000EF9EF05B
:103B900020EE0CF05C51D9265D51DA22DEC454F6D9
:103BA000DEC455F6DEC456F6DEC457F65451551140
:103BB00056115711D8B4DFEF9DF0E1EF9DF0F6EF0D
:103BC0009DF020EE18F05C51D9265D51DA22DE50CE
:103BD000545DDE505559DE505659DE505759D8A025
:103BE000F4EF9DF0F6EF9DF065EF9EF0010E546F3F
:103BF000000E556F000E566F000E576F65EF9EF06A
:103C000045C624F646C625F647C626F648C627F614
:103C100049C628F64AC629F6E0ECB4F024C65EF69A
:103C200025C65FF626C660F627C661F60601615115
:103C300060115F1107E1020E5E5DD8B022EF9EF0C9
:103C400024EF9EF02EEF9EF0010E456F000E466FA2
:103C5000000E476F000E486F8BEFA0F05E290AE15F
:103C60005F2908E1602906E16129D8A43AEF9EF0B6
:103C70003CEF9EF046EF9EF05EC645F65FC646F608
:103C800060C647F661C648F68BEFA0F020EE18F04C
:103C90005C51D9265D51DA22DE505E5DDE505F59FF
:103CA000DE506059DE506159D8B059EF9EF05BEF9D
:103CB0009EF05DEF9EF03CEF9EF047C654F648C67E
:103CC00055F649C656F64AC657F620EE10F05C5136
:103CD000D9265D51DA22DE50DE10DE10DE10D8A4C7
:103CE00074EF9EF076EF9EF080EF9EF0000E456F31
:103CF000000E466F000E476F000E486F8BEFA0F06E
:103D0000000E586F000E596F000E5A6F000E5B6F59
:103D1000475154190DE1485155190AE149515619B5
:103D200007E14A515719D8A498EF9EF09AEF9EF0F8
:103D300040EF9FF0010E5425586F000E5521596F2A
:103D4000000E56215A6F000E57215B6F20EE18F0BF
:103D50005C51D9265D51DA22DE50585DDE5059594A
:103D6000DE505A59DE505B59D8A0B9EF9EF0BBEF38
:103D70009EF0C3EF9EF0020E586F000E596F000EBA
:103D80005A6F000E5B6F45C624F646C625F658C628
:103D900026F659C627F65AC628F65BC629F6E0EC81
:103DA000B4F024C65EF625C65FF626C660F627C6C2
:103DB00061F606015E055F1160116111D8B4E3EF91
:103DC0009EF0E5EF9EF03CEF9EF05E290AE15F2950
:103DD00008E1602906E16129D8A4F1EF9EF0F3EF34
:103DE0009EF0F5EF9EF03CEF9EF05E515F1160118A
:103DF0006111D8B4FEEF9EF000EF9FF040EF9FF00E
:103E000020EE0CF05C51D9265D51DA22DEC45EF65C
:103E1000DEC45FF6DEC460F6DEC461F66151601197
:103E20005F1109E1020E5E5DD8A019EF9FF01BEF54
:103E30009FF038EF9FF020EE18F05C51D9265D51CD
:103E4000DA22DE505E5DDE505F59DE506059DE5092
:103E50006159D8B02EEF9FF030EF9FF038EF9FF010
:103E60005EC654F65FC655F660C656F661C657F68E
:103E7000000E586F000E596F000E5A6F000E5B6FE8
:103E8000585159115A115B11D8A449EF9FF04BEFCB
:103E90009FF0D8EF9FF054C658F655C659F656C64F
:103EA0005AF657C65BF6010E5827000E59235A23BF
:103EB0005B2320EE18F05C51D9265D51DA22DE50EA
:103EC000585DDE505959DE505A59DE505B59D8A022
:103ED0006CEF9FF06EEF9FF085EF9FF0020E586F32
:103EE000000E596F000E5A6F000E5B6F575156113E
:103EF000551107E1020E545DD8B081EF9FF083EFBA
:103F00009FF085EF9FF076EF9EF045C624F646C6FB
:103F100025F658C626F659C627F65AC628F65BC6B1
:103F200029F6E0ECB4F024C65EF625C65FF626C698
:103F300060F627C661F606015E515F1160116111DE
:103F4000D8A4A5EF9FF0A7EF9FF0A9EF9FF0D8EFBF
:103F50009FF05E055F1160116111D8B4B2EF9FF060
:103F6000B4EF9FF03CEF9EF05E290AE15F2908E183
:103F7000602906E16129D8A4C0EF9FF0C2EF9FF04D
:103F8000C4EF9FF03CEF9EF0545158190DE155518C
:103F900059190AE156515A1907E157515B19D8A42A
:103FA000D4EF9FF0D6EF9FF053EF9FF076EF9EF0A7
:103FB0005CC624F65DC625F658C626F659C627F611
:103FC0005AC628F65BC629F6FF0E2A6FFF0E2B6F26
:103FD000FF0E2C6FFF0E2D6F8CECA0F00601536FBF
:103FE0005351D8A4F6EF9FF0F8EF9FF01BEFA0F02D
:103FF0004751481149114A11D8B401EFA0F003EF1D
:10400000A0F01BEFA0F05CC624F65DC625F647C6FF
:1040100026F648C627F649C628F64AC629F658C6DF
:104020002AF659C62BF65AC62CF65BC62DF68CEC32
:10403000A0F00601536F5351D8A421EFA0F023EF55
:10404000A0F06DEFA0F020EE0CF05C51D9265D5190
:10405000DA2258C6DEF459C6DEF45AC6DEF45BC670
:10406000DEF420EE10F05C51D9265D51DA2210EE1C
:1040700018F05C51E1265D51E222FE0EE6244F6FFE
:10408000FF0EE620506FFF0EE620516FFF0EE62078
:10409000526FDE504F5DDE505059DE505159DE50A8
:1040A0005259D8A056EFA0F058EFA0F063EFA0F05F
:1040B00020EE10F05C51D9265D51DA22DE06000EAA
:1040C000DE5ADE5ADE5A20EE05F05C51D9265D51EB
:1040D000DA22000EDB8083EFA0F05305D8B473EF33
:1040E000A0F075EFA0F07FEFA0F0010E586F000E6A
:1040F000596F000E5A6F000E5B6F83EFA0F0586986
:1041000059695A695B6958C645F659C646F65AC692
:1041100047F65BC648F61200020E0601446F2951AD
:104120002811271109E1020E265DD8A09AEFA0F010
:104130009CEFA0F000EFA3F020EE18F02451D92658
:104140002551DA22DE50265DDE502759DE502859EF
:10415000DE502959D8B0AFEFA0F0B1EFA0F000EFDA
:10416000A3F0EDEFA2F026C642F627C643F6D8909C
:1041700043312F6F42312E6F2E5142272F5143234F
:1041800024C61AF625C61BF620EE24F02451D926A3
:104190002551DA22DEC42EF6DEC42FF6DEC430F658
:1041A000DEC431F642C632F643C633F6090E346F2A
:1041B000D89033333233342FD8EFA0F032512E253C
:1041C0001C6F33512F211D6F000E30211E6F000E0A
:1041D00031211F6F67ECF1F00601446F4451D8B4F0
:1041E000F4EFA0F0F6EFA0F0F8EFA0F000EFA3F0EE
:1041F000FF0E42152E6F010E43152F6F2E512425F1
:10420000306F2F512521316F340E3025406F000E55
:104210003121416F424B432B26B111EFA1F013EF37
:10422000A1F018EFA1F02AC63CF63D6B32EFA1F0E9
:104230002A512E6F2F6B2E3B2F3BF00E2F172E5136
:104240000F0B2F13F00E2E1740C6D9F441C6DAF427
:10425000DF500F0B306F316B2E5130113C6F2F51EF
:1042600031113D6F40C6D9F441C6DAF43CC6DFF4E3
:1042700020EE04F02451D9262551DA22010EDF6EFA
:1042800024C61AF625C61BF620EE24F02451D926A2
:104290002551DA22DEC42EF6DEC42FF6DEC430F657
:1042A000DEC431F642C632F643C633F6090E346F29
:1042B000D89033333233342F58EFA1F032512E25BA
:1042C0001C6F33512F211D6F000E30211E6F000E09
:1042D00031211F6F67ECF1F00601446F4451D8B4EF
:1042E00074EFA1F076EFA1F078EFA1F000EFA3F06A
:1042F000FF0E42152E6F010E43152F6F2E512425F0
:10430000306F2F512521316F340E3025406F000E54
:104310003121416F26B18FEFA1F091EFA1F0AFEF06
:10432000A1F02AC62EF62BC62FF62CC630F62DC6C7
:1043300031F62FC62EF630C62FF631C630F6316B69
:104340000F0E2E1740C6D9F441C6DAF4DF50F00B39
:104350002E11326F32513E6F3F6BC5EFA1F02AC66E
:104360002EF62BC62FF62CC630F62DC631F6050ECE
:10437000BFEFA1F0D890313330332F332E33E82EF6
:10438000BAEFA1F02E513E6F3F6B40C6D9F441C643
:10439000DAF43EC6DFF420EE04F02451D92625518C
:1043A000DA22010EDF6E00EFA3F024C61AF625C64E
:1043B0001BF620EE24F02451D9262551DA22DEC442
